S02B00002F55736572732F7072616E6176736861726D612F53696D706C696369747953747564696F2F61615F42
S31508000000C00A00206D070008BF000208BF000208EA
S31508000010A5160208BF000208BF000208BF000208B2
S31508000020BF000208BF000208BF000208BF0002089E
S31508000030BF000208BF000208AD000208CD71000823
S31508000040BF000208BF000208BF000208BF0002087E
S31508000050BF000208BF000208BF000208BF0002086E
S31508000060BF000208BF000208BF000208BF0002085E
S31508000070BF000208BF000208BF000208BF0002084E
S31508000080BF000208BF000208BF000208BF0002083E
S31508000090BF000208BF000208BF000208BF0002082E
S315080000A0BF000208BF000208BF000208BF0002081E
S315080000B0BF000208BF000208BF000208BF0002080E
S315080000C0BF000208BF000208BF000208BF000208FE
S315080000D0BF000208BF000208BF000208590900084D
S315080000E039090008BF000208BF000208BF0002085D
S315080000F0BF00020825DF0108F9E7010809CE020852
S3150800010005CE02086DDF01081FCE02080DCE0208D3
S31508000110C9E7010811CE020839E80108A1E8010873
S31508000120BF000208BF000208BF000208BF0002089D
S31508000130810D0208BF000208BF000208BF000208BE
S31508000140BF000208BF000208BF000208BF0002087D
S31508000150BF000208BF000208BF000208BF0002086D
S31508000160BF000208BF000208BF000208BF0002085D
S31508000170BF000208BF000208BF000208BF0002084D
S31508000180BF000208BF000208BF0002081BE70208FA
S315080001907DCA0108BF000208F3CD0208F9CD02089E
S315080001A0BF000208BF000208BF000208BF0002081D
S309080001B0BF00020874
S315080001C0F0B5114A114C124E00F00105E3695F07BC
S315080001D013D40DB9334213D103EA00078F4207D16E
S315080001E00B4A1A40002A0CBF00206FF00100F0BD30
S315080001F0013AEBD16FF00200F9E74FF0FF30F6E76E
S315080002006FF00100F3E700BF8096980000000350E6
S31508000210020001000B4B70B5D96911F480310DD17C
S3150800022001244FF48072084E084DF46020462C6471
S315080002301A61FFF7C5FF3464EC6070BD6FF001000A
S31508000240FBE700BF000003500010035000200350D6
S315080002504FF4803238B50E4B0E4C9A66E56941F676
S31508000260713315400122E3630B4B0021DA60022348
S31508000270606121202361FFF7A3FF10B92120FFF752
S315080002809FFF0122054BDA600DB10023E36338BDF9
S315080002900090005000000350001003500020035047
S315080002A070B5134C6061E3695B071ED40E4656F8B9
S315080002B0043B8D18A361AE420BD1042300212120F3
S315080002C02361FFF77DFF58B9BDE870402120FFF78D
S315080002D077BF08210846FFF773FF10B1042323618F
S315080002E070BD56F8043BA361E5E74FF0FF30F7E72A
S315080002F0000003502DE9F84315464FF48032184B99
S3150800030089469A6603F51C33DF690646174041F6A7
S315080003107132DA63012203F58053DFF84C80DA6024
S3150800032055B9284601220F4BDA601FB10022A3F502
S315080003300053DA63BDE8F88306F5005404EA0804B6
S31508000340A41BAC4228BF2C46494622463046FFF736
S31508000350A7FF0028E6D12644A1442D1BE0E700BFED
S31508000360009000500020035000E0FFFF000000004E
S31508000370000000000000000000000000000000006F
S315080003802DE9F04FA2EB01088BB04FF00009099355
S3150800039008F101034FF000080C461546C246CB4645
S315080003A0CDE90289CDE90089059300EB810308931D
S315080003B0AC4236DD059809F013F8DDE90223044658
S315080003C00D4609F077F8524606460F465B465046F4
S315080003D0594609F06FF802460B463046394608F08A
S315080003E0B1FE47A3D3E900230F4621F00041064694
S315080003F009F0D2FA002851D0059B002B4CDDDDE927
S31508000400000122462B4609F07FF909F0EDFA4FF074
S315080004100008099BC3F80080149B18600BB0BDE860
S31508000420F08F204608F0DCFF089B064653F8040BBD
S315080004300F46089308F0E6FF3246CDE906013B462B
S315080004405046594608F080FEDDE9062382468B466B
S31508000450DDE9000108F078FE3246CDE900013B46A9
S315080004603046394609F026F802460B46DDE9020110
S3150800047008F06AFEDDE90623CDE902013046394671
S3150800048009F018F802460B464046494608F05CFE55
S315080004900134804689468BE70020B8E742464B463A
S315080004A02046294609F006F8DDE9002380468946F4
S315080004B05046594608F0FEFF02460B464046494656
S315080004C008F040FE32463B4609F01EF90F4606463E
S315080004D009F08AFA32463B4680465946504608F0A5
S315080004E0E9FF02460B46DDE9000108F02BFE22462D
S315080004F02B4609F009F909F077FA8AE7AFF3008085
S3150800050011EA2D819997713D0348044B834202D025
S31508000510034B03B118477047DC600120DC600120FB
S3150800052000000000064B0749C91A891048BF013167
S31508000530491003D0044B0BB101481847704700BF58
S31508000540DC600120DC6001200000000010B5064CCC
S31508000550237843B9FFF7D8FF044B13B10448AFF328
S3150800056000800123237010BD88560120000000007A
S315080005707C46030808B5054B1BB105490548AFF38A
S315080005800080BDE80840FFF7CDBF00BF00000000AF
S31508000590005000207C460308A3F5803A704700BF48
S315080005A0174B002B08BF134B9D46FFF7F5FF00219D
S315080005B08B460F461348144A121A23F069F80E4B55
S315080005C0002B00D098470D4B002B00D098470020F1
S315080005D0002104000D000D48002802D00C48AFF396
S315080005E0008009F027FC2000290023F01BF809F0F9
S315080005F0DBFB00BF00000800000000000000000050
S31508000600C00A0020C00A0020405C0120000000004B
S315080006100000000037B504460CF048FD00283ED11E
S31508000620214B2077A361A36843F48013A36021F0CC
S315080006309EF8A368A0801B030CD4B0F5FA7F09D9ED
S315080006402DF063FF0121054608462CF073FF284666
S315080006502DF056FF20460CF051FD08BBE06808B3A4
S315080006600FF032FA24F03CFD0BF048FE25F0C0FDF1
S3150800067024F064FA00220121042024F022FD00233C
S3150800068001A88DF804300CF003FF032104200EF0B6
S3150800069025FC0A200BF0C2FB20461FF0FDFC0020BB
S315080006A003B030BD0148DBE705040300AE60012056
S315080006B008B50449044817F029FFBDE8084017F0B3
S315080006C057BF00BF48EA020810EB02084FF08052F5
S315080006D0014B5A60704700BF00ED00E0F8B50E46C2
S315080006E00546D0B1C9B10E4B0E4F1968386801F0EE
S315080006F0F7F8044678B9062332460B49386801F0FC
S31508000700BDF9044638B901232A460849386801F074
S31508000710B5F900B12C702046F8BD2124FBE700BFCF
S31508000720105E0120305E01202C0004003C0004000D
S3150800073008B503482DF0FDFEBDE8084022F037BF96
S3150800074058EC020801482DF0F4BE00BF58EC020828
S315080007500348044A0449121A92101FF0B1BC00BF9C
S31508000760C001000880030008405C012008B5154B4D
S3150800077083F30A8800F030F8FFF7EAFF124B1349B3
S315080007808B4212D30020124B12498B4218D3FFF723
S3150800079007FF186850F82240586840F8224001328E
S315080007A098688242F5D30C33EAE70022F8E71C681A
S315080007B044F8220001325C68A242F8D30833E4E721
S315080007C00022F8E700000020844603089046030844
S315080007D090460308904603084FF48041144B154A87
S315080007E070B59A60D3F88820134D42F47002C3F8A6
S315080007F08820124A05F5005491664FF0FF322266AA
S315080008006FF4003262660D22A2660222C3F8D02077
S31508000810BFF34F8FBFF36F8F4FF44036002003F0BE
S31508000820D7FB0020E66003F0B7FB2E6170BD00BF62
S3150800083000ED00E000000008008000440090005031
S31508000840014B1860704700BF045E0120054B186015
S31508000850054B1B6F03F00703032B01D12CF0BABC21
S31508000860704700BF0C5E012000800050F8B50446B2
S315080008700127124D0CB314F001000BD0002024F010
S31508000880010405EBC0021668002EF3D05168C0B209
S31508000890B047EFE72246013020284FEA520201D03E
S315080008A0D307F8D507FA00F20F2824EA0204E8D994
S315080008B0421E05EBC2021038E5E7F8BD18500020C5
S315080008C008B50C482DF035FE272003F073FB28B138
S315080008D0272003F07DFB272003F05EFB282003F08A
S315080008E069FB28B1282003F073FB282003F054FB8A
S315080008F0002008BD58EC020848B101224378017867
S315080009009A4030235943034B00205A5070472220FF
S31508000910704700BF40D0035048B1012243780178A0
S315080009209A4030235943034B00205A5070472220DF
S31508000930704700BF40E0035008B502F07FFF054B43
S3150800094000F0553020F0A040C3F82004BDE8084068
S31508000950FFF78CBF00E0035008B502F06FFF054BA8
S3150800096000F0AA3020F02040C3F82004BDE8084073
S31508000970FFF77CBF00E003502DE9F04F144605460B
S315080009800E469B46C36B87B001225B6902A9606865
S315080009909847EB6B01225B6903A93046984702A882
S315080009A020F019F8074648B10023A37563754FF080
S315080009B0FF33A360002007B0BDE8F08F03A820F03E
S315080009C017F80123A375237E04EBC303DE611F8496
S315080009D06368B3420ED1206003A820F02BF84FF0CD
S315080009E0FF332075A360237D043B022B26D8002302
S315080009F0A375DFE723681A1A53425341A37503A860
S31508000A0020F018F8237D834218BFA77503A81FF0A6
S31508000A10F3FF074602A81FF0EFFF874218BF00231F
S31508000A2003A818BFA3751FF0EFFF074602A81FF01B
S31508000A30EBFF87421CBF0023A375D4E703A81FF06A
S31508000A40DBFF80B1EB6B022230465B6904A998474D
S31508000A5004A81FF0E0FF0346207D032839D8DFE805
S31508000A6000F03838040903A8F3E7CC22237E04EB08
S31508000A70C3031A8401F0B8FA109B187003A8277EDE
S31508000A801FF0AEFF04EBC70787F82200237E03A8F2
S31508000A9004EBC303B3F8209093F822701FF0ACFF61
S31508000AA0804603A81FF0B0FF8246B8F1000F15D0A4
S31508000AB0EB6B022230465B6904A9984704A81FF02D
S31508000AC06FFF6075637D6BB90023A3754FF000084F
S31508000AD038E0227E04EBC2021384CBE703A81FF09A
S31508000AE04AFFEEE794F81680B8F1000FEED0B9F198
S31508000AF0000F09D1DFB10123E375637E002B4FD1C7
S31508000B00012F42D1677614E06B6C06EB0A02594254
S31508000B1086EA020008421CBF0021A175591E0A4038
S31508000B209B1A9945D0D8A37D002BE3D1CEE7E37D68
S31508000B3043B94FF000084B465246314628461FF047
S31508000B4088FCA060A27D12B123694B4423611A492F
S31508000B50237E097899422AD901332376BBF1000FFF
S31508000B6027D032B3E37D23B3B8F1000F21D1032F89
S31508000B701FD0A1684B1C1CD0109B22460093284608
S31508000B800123FFF7F9FEA07513E095F8343063B931
S31508000B90EB6A0133CFD1032FCDD10123A376C8E762
S31508000BA0012FCFD0032FC4D1F7E79846C3E7002318
S31508000BB0A375A07DFFE600BFC8EB02082DE9F04F3C
S31508000BC00E46984600238BB004464FF0FF31104678
S31508000BD017468DF8133001F0F1F9B6F5801F3BD3AF
S31508000BE0B21C53D1E56A6B1C57D12046616A1FF0C7
S31508000BF076FB0546B31C18BF0123DFF81091019355
S31508000C00636A626C0293236805A902FB053AE36BE3
S31508000C1005225B695046984705A81FF077FF1FF025
S31508000C209AFF50461FF0A2FF4FF0000B824601467E
S31508000C304B1C05D0636C81EA0A025B42134232D030
S31508000C40294620461FF04BFB029BAB424DD0BBF119
S31508000C50000F4DD10546D3E7314605AA04F1080031
S31508000C601FF007FE0146481C10D0384601F0A6F9C9
S31508000C700122394620460DF113031FF03CFC28B12A
S31508000C809DF8133088F80030002003E0237C002B01
S31508000C90A8D12D200BB0BDE8F08F2368ED1A636C40
S31508000CA0B5FBF3F5A6E7484601F088F90DF11303FD
S31508000CB049462046019A1FF01EFC034690B1B21C15
S31508000CC003D0D9F80020B2420CD19DF81320039323
S31508000CD00D4B88F8002049461A68384622F0E0FC91
S31508000CE0039B9B46D9F80810A2E7BBF1000FD0D0AA
S31508000CF0B6F5801FC8D2314698F800307A6804F1F4
S31508000D00080001F089F8BFE7C4EB02087C57002009
S31508000D102DE9F3410446174698460E46194D816A51
S31508000D20E36A8B422AD04B1C18E0284601F046F9A4
S31508000D300122294620460DF107031FF0DCFB30B1DE
S31508000D404346294620469DF80720B847B0B1A9680A
S31508000D504A1C05D0012E0AD0E36A9942E5D10DE076
S31508000D60696820461FF048FB012E0146D8D16B68FA
S31508000D7081EA0302636C5B421A42D1D002B0BDE835
S31508000D80F08100BF505700202DE9F0474FF0FF33A0
S31508000D904FF6FF720025044600F10806C0E909234C
S31508000DA08AB0C3620562056330460F461FF032FDFE
S31508000DB020461FF014FA28BB204639461FF0DFFAF2
S31508000DC020461FF00CFA28BB5E200AB0BDE8F08763
S31508000DD0E26B2368606CD2F814C000FB053005226C
S31508000DE005A9E04705A81FF091FE012840F0838079
S31508000DF0294620461FF094FA421C294620461FF031
S31508000E000DFA0135E3699D42E2D320461FF0E7F962
S31508000E100028D1D020461FF012FA4FF6FF72636AF7
S31508000E20934200F0B080E26B676C2068694607FB66
S31508000E30030055690522A84768461FF03EFE626A08
S31508000E402368606C514D00FB02301FF08FFE4FF097
S31508000E50FF33A062E3622A466FF00101204605AB24
S31508000E60FFF7ACFE002850D1AD6829462046E5625A
S31508000E701FF091F9206320B92046E16A1FF0BCFAF9
S31508000E80E062294620461FF0B7FA0546A36A9D4246
S31508000E903DD120461FF03DF900278046B946E36953
S31508000EA0994546D3B84563D92046616A1FF017FAB3
S31508000EB00026054604F1400ABE4212D3626C236836
S31508000EC0694602FB0539E36B05225B694846984784
S31508000ED068461FF0F2FD534602464946E06B1FF08E
S31508000EE047FE294620461FF0FAF90136B045054661
S31508000EF0E2D1642069E71FF033FE002881D0294635
S31508000F0020461FF00DFA024677E7A56AADE729469F
S31508000F1020461FF040F9236B2946034407462363FE
S31508000F2020461FF069FA0546002FAFD1C4E90B0722
S31508000F30ACE7636C2568052203FB0955E36B05A935
S31508000F405B692846984705A81FF0E0FD1FF003FED9
S31508000F5058B128461FF00AFE014620461FF01BF925
S31508000F60636C143B984208BF013709F1010996E7FB
S31508000F7030461FF04FFC002320461946044AFFF767
S31508000F80C7FE002021E767201FE700BFA8570020FB
S31508000F90E50402082DE9F041036B9046826B076869
S31508000FA09A4288BF8363426C436A90B002FB037718
S31508000FB0C36B0E46052201A95B6904463846984765
S31508000FC001A81FF0A3FD01280146307057D0656CB3
S31508000FD0E26B2368606AD2F814C005FB003005226C
S31508000FE006A9E04706A81FF091FD01284FF0000565
S31508000FF023D0D4E90A3201219342CDE90B458DF875
S3150800100034800E958DF83C102AD1194620461FF0DB
S31508001010F3F9236B626C14339B1AE06223630C9B0F
S3150800102053B99DF83C303BB1626A616C2368E06B4A
S3150800103001FB02311FF022FD0C9DE36B05225B6963
S3150800104001A93846984701A81FF060FD3070284668
S31508001050236BA26B9A4288BFA36310B0BDE8F081E8
S31508001060237C33B91C490BAA04F1080000F022FFBF
S31508001070D5E72046194A0BABFFF74AFECFE7237C94
S3150800108023BB2246164904F1080000F013FF616AE3
S3150800109020461FF045F9616A421C20461FF0BEF83B
S315080010A0054620B9236B626C1344143B2363204620
S315080010B0A16A1FF0A1F92368A062C01A636CB0FB8D
S315080010C0F3F0606220461FF0DAF9B6E700232046FF
S315080010D0044AFFF71DFEDAE72D180008A9170008CD
S315080010E07F0502081B05020873B50D46D11E4A4244
S315080010F01C461B7E4A419A4226D129682368994292
S3150800110022D3636899421FD8114E0DF10703324660
S31508001110FFF754FDC0B972686B689A4214D19DF8FE
S315080011200730DA1E53425341227E93420CD163693B
S3150800113001336361D4E90323934205D22968A2687F
S3150800114042F8231001332361012002B070BD00BFAD
S31508001150A85700202DE9F04F9A468BB09DF85030DD
S31508001160DFF850B10293DBF81030804653450D4640
S315080011701646C0F09980D146DBF804300193B9F1E0
S31508001180000F00F08D80D8F83C3001225B6907A972
S315080011900198984707A81FF02BFCDBF80030984207
S315080011A040F0858007A81FF02FFC0428074614D1B5
S315080011B007A81FF030FC019B029A04463B44002A0C
S315080011C03FD1864212D91446361A404601991FF075
S315080011D013F9A9EB04090190D1E7D8F83C300222AB
S315080011E05B69019808A9984708A8E2E7841B544553
S315080011F028BF5446032C03EB0607AAEB040A4FEA5A
S3150800120094021CD9D8F83C30294638465B69984779
S3150800121024F0030304F003061F441D44002ED4D013
S31508001220D8F83C3001225B6908A938469847324607
S31508001230284608A9354422F033FA0026C5E726468B
S31508001240ECE7074600F00302039203442A180492C7
S315080012500593049BDD1B059BD81B039B9F420FD15F
S31508001260002FB2D0D8F83C30012208A95B6998470C
S315080012703A46284608A922F0E1F978B93D44A4E798
S31508001280D8F83C30012208A95B6998470422284609
S3150800129008A922F0D3F908B9043FDAE74FF036096E
S315080012A048460BB0BDE8F08F4FF06309F8E74FF0FA
S315080012B06F09F5E7D45700202DE9F0410F46164689
S315080012C09846044688B060B390F83450FDB10121C1
S315080012D01EF07AFF00210E9BCDE90511CDE90237F4
S315080012E09DF83C30CDF804808DF81C30237C04969C
S315080012F08BB90D4901AA04F1080000F0DBFDDDE910
S315080013000553E06B002E08BF1D461FF046F9284618
S3150800131008B0BDE8F0812046044A01ABFFF7F8FCA7
S31508001320EDE70546F3E700BF49050208E91000089E
S315080013302DE9F04F99B00F4609920A69416C0E9350
S315080013401439D31DB3FBF1F3013302EBC302036B6C
S3150800135004469342C0F0BC810023DFF844940D9301
S31508001360E36A48461946079300F028FED7E903368C
S3150800137004930E9B022B4ED1CC2E40F08A81099BFA
S31508001380002B42D0394620461FF065F9656C079A4E
S315080013906B1E13401490ED1AE36B01225B6916A9C4
S315080013A07868984716A81FF027FB00280CBF042367
S315080013B00823782E06933DD9012300254FF0080A05
S315080013C005933B6805990E98C9F80030C9F810606E
S315080013D01FF034FB4FEA9A0310930023DDF81CB084
S315080013E089F814000B930F9308930C93616C4A1EAB
S315080013F00BEA02028B1A002E38D05544AB4240D86D
S31508001400236B5B1A13442363ABE0049B1B6814939A
S3150800141008230693D0E7656C079A6B1E1340782E4F
S31508001420A5EB030516D8FB7D7BB9099B002BB3D129
S3150800143004230693331DAB4210D9A6B1082DBBD899
S3150800144004250023AA460593BBE7099B002BA3D1D5
S315080014500823EEE7099B002B9ED1D9E700250595C1
S315080014604FF0040AADE704250596F9E75345C7D3B7
S31508001470B0460BEB0A030393089B002B18BF032304
S3150800148013E0A3EB0A039E42B0460BEB0A0228BF01
S3150800149098469E420392EFD90123D9F8102089F87D
S315080014A01730964271D1C9F804B0089399F81730E5
S315080014B0002B6CD099F818200899D31C09EBC303A4
S315080014C00132C3F804B0A3F80880997289F8182085
S315080014D0B8F1000F14D00E9B022B5BD10B9B7BB986
S315080014E00F9B4344032B0BD9E36B01229B6903989B
S315080014F014A998470546002840F0EC8001230B9371
S31508001500089B16A80193059B009399F81420434657
S31508001510396800F009FDE36B58469B69109A16A9CD
S315080015209847051E0D9B18BF5B4652460D935946B4
S31508001530434620461EF08DFF236B08F10302A3EBFA
S315080015400A0322F003029B1AC9F808002363002D38
S3150800155040F0C0800F9BDDF80CB04344A6EB0806AC
S315080015600F93594620461EF047FF00258346002E56
S315080015707FF43CAF8A4A3968936804F10800E3624D
S3150800158052680E9B00F048FC84E002238DE7C9F8F8
S3150800159004B09DE7099B002B30D1049BB8F1030FDB
S315080015A043440A9327D9DDE90301E36B4FEA98021E
S315080015B09B6998470546002865D118F003025FD055
S315080015C0049B28F003052B440493039B1D444FF00A
S315080015D0FF33049915A8159322F062F8E36B2846A1
S315080015E09B69012215A9984705460A9B0493002D75
S315080015F086D0039B99E74246039DE8E7039B0A9337
S3150800160007F120031193FB7D78689BB100233D7E8B
S315080016100C9AD9B28D4211D9119903F1010C31F8FE
S315080016203310914226D9069907EBC303D8690A44B1
S31508001630104403E00C9B069A13441844E36B0122FA
S315080016405B6915A99847159B012213930C9B0A9869
S3150800165004330C93E36B13A99B699847039B0A9A77
S3150800166043449B1A042B054607D978B91346043315
S315080016700A93C8E76346521ACBE70A9B0393B6E771
S315080016800A9B04933CE70A9B0493B2E70A9B0393DD
S31508001690AFE77026304619B0BDE8F08F002657E050
S315080016A004F108001FF0B6F83346314620463D4A95
S315080016B0FFF72EFB3A69616CD31D1439B3FBF1F3BE
S315080016C0013302EBC302236B9342BFF449AE65E0D4
S315080016D01C26DFE73D2D61D104F108030393236837
S315080016E0079A606CD61AB6FBF0F600FB06301FF0B8
S315080016F03DFAE16A824620461EF07EFEA26A8242D2
S31508001700D8D0626CD9F80830511E0B40216BE062C4
S31508001710891A0B4423630D992368CB1AB3FBF2F895
S315080017204645BBD1079BB3EB0A0611D0E36BB2085B
S3150800173051469B6998478346E36A079A3344E362AE
S31508001740236B03989B1A534423631FF063F85E4682
S315080017502368616CE06B01FB08311FF07CF92046B9
S315080017601EF03DFD20461EF06AFD626A2368606C25
S3150800177000FB02301FF0FAF9A06220461EF07FFE39
S315080017802063002E8CD03A69616CD31D1439B3FBE3
S31508001790F1F3013302EBC3029042A0D22E4679E759
S315080017A07C570020E5040208032A2DE9F341064682
S315080017B00D4617461C4606D1237A012B23D0012055
S315080017C002B0BDE8F081DFF86080096842460DF195
S315080017D00703FFF7F3F960600028EDD19DF80720AD
S315080017E0237A032AE8D0D8F804106A689142E3D12C
S315080017F0012B2969D4F80CC007D172690CEB0103D7
S31508001800934202D92074207CDAE708316144E1600A
S315080018103B46012229463046FFF78AFD60600028CC
S31508001820CAD00020CCE700BFA85700202DE9F34115
S31508001830089C032A1746266806D1237A012B24D04A
S31508001840012002B0BDE8F081DFF8908030464246BC
S315080018500DF10703FFF7B2F960600028EDD125689E
S31508001860D8F80400A96AD5F844C04840CCF100036A
S315080018701840227AE1D1012A09D1E268D8F8103055
S3150800188013447269934202D92074207CD9E72868E8
S31508001890EB6A1B1A081AB3FBFCF3B0FBFCF0834295
S315080018A00BD1706CF36A421E1340326B121A134442
S315080018B0284633631EF0A0FDE862D8F81020E368D6
S315080018C008321344E36001223B4604492068FFF7C7
S315080018D02FFD60600028B0D00020B2E7A85700208E
S315080018E02DE9F0410025634B0E46D3F800800446E7
S315080018F01D6018B921252846BDE8F08190F8347096
S3150800190007B30A6803689A4240F0AA804A6843689F
S315080019109A4240F0A5808A6883689A4240F0A0807F
S31508001920CA68C3689A4240F09B800A6943699A422A
S3150800193040F096808A69C36B9A4240F091804B6961
S315080019408361D8E768223946856B21F0A1FED6E97E
S315080019500212336804F1080023607368A5636360A4
S31508001960336963617369A3611EF066FFB36904F1A5
S315080019704000E3639B68984720B9676C17B16368B2
S31508001980B3FBF7F794F84330E761002BB2D0002396
S31508001990656C2366002D6BD0002F69D02368B3FBD6
S315080019A0F5F205FB1233002B5CD16768B7FBF5F639
S315080019B005FB1676002E55D120461EF0DCFBA369E2
S315080019C0043303449F424FD340F634726369CC3BD9
S315080019D093424BD8B5F5805F4AD3032120461EF0C3
S315080019E0F3FBD4E90001E36B1B6898470546E36BF4
S315080019F00220DB6898472DB184F83460E06B1EF04E
S31508001A00CCFD78E741462046FFF7BEF9642805462F
S31508001A1004D141462046FFF7B7F90546636C143BE7
S31508001A20D5B9226A204602FB03F61EF0A4FBA36979
S31508001A30043303449E4203D284F834505A25DDE722
S31508001A400123D4E900010C4A84F8343013680133C1
S31508001A5013601EF08BFFD1E7002384F83430CDE7FE
S31508001A605D2548E7592546E75A2544E75F2542E7B5
S31508001A705B2540E70C510020085100202DE9FF4165
S31508001A800C4616461F46054680B390F834307BB39D
S31508001A90B1F5801F2ED2DFF8608001211EF094FB7D
S31508001AA02146424628460DF10F03FFF787F80446FC
S31508001AB070B99DF80F30012B11D1D8F81030BB4200
S31508001AC012D10246009031462846FFF743FB0446EA
S31508001AD0E86B1EF062FD204604B0BDE8F081022BDB
S31508001AE014BF2D246024F3E76324F1E72124F2E7E9
S31508001AF01124F0E72924EEE7D45700202DE9F04316
S31508001B0085B00C4617461E460546DDF8308098B364
S31508001B1090F8343093B3B1F5801F31D2DFF8649072
S31508001B2001211EF051FB21464A4628460DF10F03B6
S31508001B30FFF744F8044688B99DF80F30012B14D1F5
S31508001B40D9F8102006EB08039A4213D300904346AF
S31508001B50324639462846FFF7FDFA0446E86B1EF07A
S31508001B601CFD204605B0BDE8F083022B14BF2D24CA
S31508001B706024F3E76324F1E72124F2E71124F0E770
S31508001B802924EEE7D45700202DE9F3411F46002308
S31508001B900C46164605463B6050B390F834304BB3B6
S31508001BA0B1F5801F28D2DFF8548001211EF00CFB06
S31508001BB02146424628460DF10703FEF7FFFF044675
S31508001BC0A0B99DF80730032B10D0022B0AD10123A8
S31508001BD0336004233B60E86B1EF0DFFC204602B04E
S31508001BE0BDE8F081D8F810303060F3E72D24F2E72D
S31508001BF02124F3E71124F1E72924EFE7D45700203D
S31508001C0073B5044641691EF09BFA626E236B024463
S31508001C1093422CBF00220122834294BF00231B1A41
S31508001C20207C84F85020636584F85800A8B1002306
S31508001C300B4E1A461946204600961EF0D9FD00237B
S31508001C4005461A461946204600961EF0DAFDE36850
S31508001C502844984294BF0020C01AE06502B070BDBF
S31508001C60FFFF0F002DE9F3471E4643690446B342BA
S31508001C70884617469DF828904FD300258DF80750BB
S31508001C80204661691EF05CFAD4F830A082450AD273
S31508001C90236AB5EB430F06D2002220460DF1070151
S31508001CA0FFF778F9B8B39DF80730012B05D1002264
S31508001CB020460DF10701FFF76DF9B9F1030F06D0BC
S31508001CC0314620461EF03CFA256B854227D3154D32
S31508001CD04FF0FF31284600F071F94B46294600229D
S31508001CE02046C5E90376C5F80080FFF721FB236E79
S31508001CF0054663B12046FFF783FF94F8503013B9C1
S31508001D0094F858301BB1236E04F1500098472846C2
S31508001D1002B0BDE8F0870135B2E76225F7E71C2572
S31508001D20F5E700BFA85700202DE9FF410F4690466A
S31508001D301E46054698B390F8343093B3B1F5801F24
S31508001D4031D21A4C02211EF03FFA2246394628465D
S31508001D500DF10F03FEF732FF024678B10123424622
S31508001D600093394633462846FFF77CFF0446E86B5E
S31508001D701EF013FC204604B0BDE8F0819DF80F3034
S31508001D80012BEBD12169B142E8D100934146334694
S31508001D902846FFF7DFF904460028DFD1E7E72124C4
S31508001DA0E8E71124E6E72924E4E700BFD457002032
S31508001DB030B50C46054685B028B390F8343023B3C1
S31508001DC0B1F5801F23D202211EF0FEF90DF10F0393
S31508001DD0214628460F4AFEF7F1FE034688B99DF8C4
S31508001DE00F20032A0DD003222146009202462846D8
S31508001DF0FFF738FF0446E86B1EF0CFFB204605B018
S31508001E0030BD2D24F7E72124F8E71124F6E7292425
S31508001E10F4E700BFD45700202DE9F043466886B39F
S31508001E20056898464FF0000CA946AE4655F83C4062
S31508001E300CF1010CC4F31307013401D0B94217D0D1
S31508001E4066450EF1080EF1D12F46002403E0A6429E
S31508001E5007F1080712D055F8343001340133F6D1AA
S31508001E60C1F3130141EA0851C7E90012BDE8F0833E
S31508001E7041EA0851CEE90012BDE8F083B8F1030F34
S31508001E8003D101230372BDE8F083002303E09E42D9
S31508001E9009F10809F5D055F833400133C4F307545E
S31508001EA0032CF4D1C1F3130343EA0853C9E90032FA
S31508001EB0BDE8F0832DE9F0410646406882B0C0B11E
S31508001EC00F4690460024336853F8345003EBC40396
S31508001ED0C5F30752C5F31301013504F1010406D011
S31508001EE05B683046CDF80080B84710B17068844208
S31508001EF0E9D302B0BDE8F081024B1968024B1868B5
S31508001F00FFF7EEBC105E0120305E012008B52CF00C
S31508001F10FCFA014B186008BD00580020014B1868F0
S31508001F202CF0EEBA0058002073B504462248012A60
S31508001F3000EAC1119DF8185023F07C4007D9961E77
S31508001F40012E28D9073303F07F03194308E09DF8CB
S31508001F501C300A43DB0603F0C053134343F06041C9
S31508001F600023C4E900108DF80730B5B120222146B8
S31508001F700DF107001EF016FE1A220DF10700211DAD
S31508001F801EF010FE082063689DF8072043EA826366
S31508001F90636002B070BD1143E2E71B220DF1070032
S31508001FA021461EF0FFFD23689DF80720042043EA1A
S31508001FB0C2632360EDE700BF80FFFF0738B5094B12
S31508001FC00D461A680021044621F062FB00234FF0F3
S31508001FD0FF322383C4E900252361A260E382A37646
S31508001FE038BD00BFC4EB02080138C0B205289ABF45
S31508001FF0014B185C01207047C9EB02082DE9F04136
S315080020000746154600240E46596888B0490A01292C
S3150800201022464FEA510104F10104F8D8DC78997890
S3150800202024031B88C90201F4006104F480540C439C
S31508002030C3F30A035203234492B24FF000089C18D4
S31508002040274B6FEA0444039325F07843ED4302A92E
S315080020500DF107001B2202938DF807801EF0A2FDE2
S315080020609DF80720029B02A943EAC2630DF1070007
S315080020701B2225F07845049302958DF807801EF0FB
S3150800208091FD9DF80720029B6FEA144443EAC26358
S3150800209005934FF0FF330794069307A9BB690122FE
S315080020A006F110009847BB6905A90446012206F106
S315080020B008009847BB69404518BF044604A9012291
S315080020C0301D98470122404518BF0446BB69304673
S315080020D003A99847404508BF204608B0BDE8F081E7
S315080020E001009AB2044BD3F88420D206FBD4D3F865
S315080020F08400C0F3811070470040005038B5174B74
S315080021000546D3F828310C4603F00703013B052B97
S3150800211020D8DFE803F003131B0F0B172BF034F856
S31508002120052305B1286004B1236038BD2BF02CF8CF
S315080021300623F6E72BF072F80723F2E72BF064F88C
S315080021400323EEE72BF060F80423EAE72BF058F8B0
S315080021500223E6E700231846E3E700BF00800050A5
S31508002160002337B50193164B0546D3F820320C46A3
S3150800217003F00703042B21D8DFE803F0030B11163D
S315080021801B0001230DB1019A2A6004B1236003B034
S3150800219030BD002101A8FFF7B1FF1223F2E72BF0AB
S315080021A03DF807230190EDE72CF0A4F90A230190E6
S315080021B0E8E72BF087F809230190E3E70023E1E736
S315080021C00080005038B5104B0546D3F850320C46FF
S315080021D003F00303022B12D0032B08D0012B0AD0DD
S315080021E00023184605B1286004B1236038BD2CF0D9
S315080021F084F90C23F6E72CF07DF90A23F2E72BF095
S3150800220061F80923EEE700BF0080005038B5104B8F
S315080022100546D3F880300C4603F00303022B0BD097
S31508002220032B0DD0012B0FD12AF0B4FF0E2305B1D5
S31508002230286004B1236038BD2AF0F0FF0723F6E7CB
S315080022402AF0A2FF0623F2E700231846EFE700BFAD
S315080022500080005038B5104B0546D3F800310C46BF
S3150800226003F00303022B0BD0032B0DD0012B0FD148
S315080022702AF0CAFF032305B1286004B1236038BDDC
S315080022802BF020F80923F6E72AF0C4FF0823F2E723
S3150800229001230020EFE700BF0080005038B5184B37
S315080022A00546D3F820010C4600F00700062823D877
S315080022B0DFE800F0040A0E16121A1E00012305B103
S315080022C0286004B1236038BD2AF05EFF0523F6E7CF
S315080022D02AF09AFF0323F2E72AF0A0FF0723EEE786
S315080022E02AF08EFF0223EAE72AF04EFF0623E6E7E6
S315080022F02AF08AFF0423E2E700231846DFE700BF37
S315080023000080005038B5104B0546D3F840310C46CE
S3150800231003F00303022B0BD0032B0DD0012B0FD197
S315080023202CF0E8F80A2305B1286004B1236038BD0B
S315080023302AF0C8FF0923F6E72CF0DFF80C23F2E7AA
S3150800234001230020EFE700BF00800050002337B5C7
S315080023500193164B0546D3F860320C4603F0070383
S31508002360013B032B1FD8DFE803F0020E19140021E6
S3150800237001A8FFF793FF10230DB1019A2A6004B153
S31508002380236003B030BD002101A8FFF7BBFF11236E
S31508002390F2E72AF043FF07230190EDE72AF030FF22
S315080023A002230190E8E70023E6E700BF008000501B
S315080023B0002337B50193164B0546D3F894320C46DD
S315080023C003F00703013B032B1FD8DFE803F0020ED7
S315080023D01914002101A8FFF761FF10230DB1019A16
S315080023E02A6004B1236003B030BD002101A8FFF7BD
S315080023F089FF1123F2E72AF011FF07230190EDE781
S315080024002AF0FEFE02230190E8E70023E6E700BF74
S315080024100080005038B5104B0546D3F860310C469D
S3150800242003F00303022B0BD0032B0DD0012B0FD186
S315080024302CF060F80A2305B1286004B1236038BD82
S315080024402AF040FF0923F6E72CF057F80C23F2E7A9
S3150800245001230020EFE700BF008000502E4B984272
S315080024604AD022D82D4B984240D014D82C4B9842AB
S3150800247039D00AD82B4B984232D02B4B98422FD0C2
S315080024802A4B98422CD000207047294B9842FAD103
S31508002490284B186F7047284B98422AD0274B9842EA
S315080024A0F1D1244BD3F880007047254B98422BD0A6
S315080024B009D8244B984223D0234B9842E3D11D4B8D
S315080024C0D3F88C007047214B984221D003F574034A
S315080024D003F510539842D6D1164BD3F89800704797
S315080024E0144B986D7047134B586E7047114B586FC5
S315080024F07047104B986F70470E4BD3F8840070479F
S315080025000C4BD3F8880070470A4BD3F890007047F5
S31508002510084BD3F8940070470048E8010024F400FB
S31508002520C0CF6A0080841E0000093D0040420F00AB
S31508002530405DC6000080E00FC0EA210180BA8C0128
S31508002540007E560380D54302006CDC020090D0035F
S3150800255073B50D460021114B0191D3F8804106460B
S3150800256004F00304022C13D0032C0CD0012C13D135
S3150800257001A8FFF793FE10240EB1019B336005B145
S315080025802C6002B070BD2AF049FE07240190F3E7DB
S315080025902AF036FE0190EFE70C46EDE70080005082
S315080025A038B5104B0546D3F840320C4603F0030302
S315080025B0022B0BD0032B0DD0012B0FD12BF09AFF3A
S315080025C00A2305B1286004B1236038BD2AF07AFED3
S315080025D00923F6E72BF091FF0C23F2E701230020ED
S315080025E0EFE700BF0080005038B5144B0546D3F816
S315080025F000020C4600F0070004281BD8DFE800F0AC
S3150800260003090D111500012305B1286004B12360E3
S3150800261038BD2BF06FFF0A23F6E72AF053FE09238D
S31508002620F2E72BF06AFF0C23EEE72AF0D3FD0F231F
S31508002630800AE9E700231846E6E700BF0080005055
S3150800264038B5144B0546D3F808020C4600F00700C7
S3150800265004281BD8DFE800F003090D111500012333
S3150800266005B1286004B1236038BD2BF043FF0A2367
S31508002670F6E72AF027FE0923F2E72BF03EFF0C23A4
S31508002680EEE72AF0A7FD0F23800AE9E7002318469C
S31508002690E6E700BF00800050B0F5207F1FD009D8BC
S315080026A0B0F5007F15D003D868B1B0F5C07F0AD061
S315080026B000200CE0B0F5607FFAD10B4BD3F8800010
S315080026C0C0F3011003E0084B186FC0F30330013064
S315080026D07047054BD3F89000C0F30460F7E7024B48
S315080026E0186FC0F38020F2E70080005002464FF4CE
S315080026F08030104B10B598660020FFF7CDFF504389
S3150800270041F671320C4BDC69DA635A6804F480349A
S3150800271022F4401259B90949884294BF0020012081
S31508002720000502435A600CB10022DA6310BD044961
S31508002730F2E700BF0090005000000350005A620202
S31508002740002D31014209531E022B96BF074B002369
S3150800275003EB820300F01F0029B103F58053012221
S3150800276082401A60704703F50053F8E7608000500E
S315080027701FB50021B0F5807F0446CDE9001100F0B1
S31508002780CF803BD8002800F0A480A0F12004602C5C
S3150800279044D8602C42D8DFE804F09CA49CA4B4B4C6
S315080027A0B4B4B4A4BE4AD46A4AA4A4A441414141DB
S315080027B041414141A4A4A47CDEA441414141414197
S315080027C0414141414141E3B49C9C9CD94A4A88E82D
S315080027D05FB94141414141939C41B4B4B4B4B4B9E1
S315080027E0B9A441A4A441414141414141414141412A
S315080027F0414141414141414141419800B0F5E06FB5
S3150800280000F0A98038D8B0F5607F75D01AD8B0F531
S31508002810007F61D005D8B0F5C07F5AD0009804B0C3
S3150800282010BDB0F5207F5CD0B0F5407FF6D12AF018
S31508002830D1FC02464FF42070FFF72EFFB2FBF0F2F0
S31508002840520857E0B0F5B06F65D00AD8B0F5806F7A
S3150800285057D0B0F5A06FE1D100216846FFF780FC9C
S31508002860DCE7B0F5C06F6CD0B0F5D06FD6D10021DB
S315080028706846FFF7B9FED1E7B0F5186F70D00DD8E6
S31508002880B0F5086F7FD0B0F5106F5FD0B0F5F06F78
S31508002890C4D100216846FFF7BDFDBFE7B0F5286F34
S315080028A063D007D8B0F5206FB8D100216846FFF786
S315080028B04DFDB3E7B0F5406F28D0B0F5486FADD100
S315080028C000216846FFF774FDA8E72AF063FC00902C
S315080028D0A4E72AF07FFCFAE72AF05CFC02462046C9
S315080028E004E02AF077FC02464FF42070FFF7D4FE86
S315080028F0B2FBF0F2009291E701A8FFF787FC019A74
S31508002900EDE700216846FFF7C9FC87E7002168461E
S31508002910FFF7F4FB82E700216846FFF719FE7DE71B
S315080029204FF0E02302911B695B0705D52AF052FC9C
S315080029300290029B009371E703A902A8FFF7E2FC45
S31508002940F7E700216846FFF7DDFC67E700216846E0
S31508002950FFF776FE62E700216846FFF721FE5DE78E
S3150800296000216846FFF72EFC58E70021084B039123
S31508002970D3F8703203F00303012B02D103A8FFF743
S31508002980C1FC039BD6E76846FFF764FC46E700BF31
S315080029900080005008B58020FFF7EAFE034B9842F6
S315080029A09EBF4FF48032024B1A6708BD005A620276
S315080029B000A000501FB503460020B3F5807F0190A4
S315080029C000F0F48000F28E80662B7DD83C2B06D86A
S315080029D0243B092B5ED9019805B05DF804FB3D3B05
S315080029E0292BF8D801A252F823F000BFCF2B0008F4
S315080029F0FD2B0008D7290008D7290008D729000881
S31508002A00D7290008D7290008D7290008D729000898
S31508002A10D7290008D7290008D7290008D729000888
S31508002A20D7290008D7290008072C0008A32B000877
S31508002A30D7290008D7290008D72900084B2B0008F2
S31508002A40D7290008D7290008652B0008112C00088B
S31508002A500D2B0008F32B0008D7290008D7290008F2
S31508002A60D7290008D7290008D72900087D2B000890
S31508002A70D7290008D7290008A32B0008A32B00088C
S31508002A80A32B0008A32B0008A32B0008F32B000890
S31508002A90F32B0008092B9ED801A252F823F000BF99
S31508002AA0A32B0008A32B0008A32B0008A32B0008C0
S31508002AB0A32B0008D7290008992B0008D729000856
S31508002AC02B2B0008D92B0008802B84D1594B1B6F60
S31508002AD003F00703013B032B3FF67DAFDFE803F066
S31508002AE05A535658B3F5F06F71D023D8B3F5B06F73
S31508002AF052D010D8B3F5607F77D0FFF46CAFB3F53A
S31508002B00806F4ED0B3F5A06F7FF465AF002001A9A2
S31508002B10FFF726FB5FE7B3F5D06F5DD0B3F5E06F3F
S31508002B206CD0B3F5C06F7FF456AF002001A9FFF74C
S31508002B30E9FB50E7B3F5186F65D00BD8B3F5086F06
S31508002B404FD0B3F5106F7FF446AF002001A9FFF709
S31508002B5077FD40E7B3F5286F5AD008D8B3F5206F4C
S31508002B607FF439AF002001A9FFF7F0FB33E7B3F58F
S31508002B70406F3ED0B3F5486F7FF42DAF002001A912
S31508002B80FFF716FC27E70523019324E70323FBE752
S31508002B900823F9E70223F7E7002001A9FFF7D8FC85
S31508002BA019E7002001A9FFF779FB14E74FF0E023A6
S31508002BB002901B695B0705D52AF00CFB0D230393CE
S31508002BC0039BE1E703A902A8FFF79CFBF8E70020AF
S31508002BD001A9FFF71FFCFEE6002001A9FFF704FD87
S31508002BE0F9E601A9FFF736FBF5E601A9FFF70EFBA3
S31508002BF0F1E6002001A9FFF781FAECE6002001A919
S31508002C00FFF7CEFCE7E6002001A9FFF7DBFAE2E6CC
S31508002C10084BD3F8703203F00303012B04D0022BC0
S31508002C200CBF15230023AFE7002103A8FFF76AFBB3
S31508002C301123A9E7008000504FF48032074B08495A
S31508002C40586E03F580535A664B6A23F001034B62AC
S31508002C50C3035CBF034B5A66704700BF0080005031
S31508002C600000085000A0005008B5FFF7A3FE092889
S31508002C7011D00A38012802D94FF6FF7008BD4FF463
S31508002C808002064B5A6603F5D8335B6ADB07F3D531
S31508002C904FF4FA70F2E7024B1888EFE700900050FD
S31508002CA02E60012008B5FFF785FE03280ABF024BF0
S31508002CB04FF6FF70188808BD2C60012038B5044609
S31508002CC08020FFF777FE032800F083804FF48012F8
S31508002CD0524B4FF0A0615A6645F60E02504BC3F8A8
S31508002CE08020504A91624FF4803102F580529162F9
S31508002CF09A6DD203FCD4996D11F08041FBD1D4E9C9
S31508002D000002120542EA0062E07B0243207B42EAA7
S31508002D100042607B42EA0032A07B42EA80121A61D6
S31508002D209869D4E90452120642EA856200F0004026
S31508002D300243A07EE57E0243207E42EA0042607E90
S31508002D4042EA00229A611A6AE06922F00F0242EA10
S31508002D508502354D00283DD11A6294F82420996AD7
S31508002D6094F82000D200294042EA40120A4394F817
S31508002D70211042EA011242F480329A622B49284A0B
S31508002D80936D31EA0303FBD14FF0807125488162C8
S31508002D901369A56823F4700343EA055313614FF0DA
S31508002DA00043836194F822300BB9214B996294F859
S31508002DB023303BB94FF480321D4B9A62184A936D03
S31508002DC05B00FCD494F825301BB1154B194AC3F89F
S31508002DD0802038BD024342F0080202281A6208D150
S31508002DE019614FF40852996113484FF47F411DF059
S31508002DF0F7FE0B4994F822308A6A94F820001B06DD
S31508002E002A4043EA4013134394F8242043EAC203B2
S31508002E1094F8232043EA02438B62D3E700900050DC
S31508002E200040005A0050005AC7FFFEFE030001008A
S31508002E300060005AF1A7FFFF3440005A014B93F98E
S31508002E4000007047BF600120F0B5D0E901434FF498
S31508002E5000061A4A4178057856664FF4D156022775
S31508002E6002F5B8325662164E4F2977604FF00107C1
S31508002E7028BF4F2106F5805677601669F603FCD4FD
S31508002E8041EA052151611B01417B43EA04230B43B7
S31508002E90017B43EA41039360C37B817B1B0143EAC1
S31508002EA04113417C0B43017C43EA41035360837C15
S31508002EB013B16FF4D1535362F0BD00BF00900050B8
S31508002EC000100250014B1880704700BF2E60012089
S31508002ED0014B1880704700BF2C6001204FF4800218
S31508002EE008B5184B5A660223174A5360936813F4B9
S31508002EF08033FBD1012822D12AF086F9134B984258
S31508002F0015D003F5122303F5F863984213D0104B36
S31508002F1000EB8002400AB3FBF0F3520A0A49CA6280
S31508002F200B6301234B620022074B5A6008BD45F626
S31508002F307A13084AF2E745F61A03074AEEE7536298
S31508002F40F1E700BF009000500040025000F049022F
S31508002F5064666666D8B80500BBCF0500B0F5207F65
S31508002F6010B50C465DD008D8B0F5007F4ED003D812
S31508002F70C0B1B0F5C07F15D010BDB0F5607FFBD1EC
S31508002F802C4B4C1ED3F8FC202B4912F0807F4FEABD
S31508002F90041427D1D1F8803023F030032343C1F835
S31508002FA08030E9E71DF02BFE1DF037FE4FF4803127
S31508002FB0224B214A1967136F013C23F4704343EAF5
S31508002FC0043313672AF006F90446FFF78BF8C0F1B5
S31508002FD0020120461DF01BFE00F04AF8BDE810402D
S31508002FE0FFF7D8BCD3F8FC2022F08072C3F8FC2087
S31508002FF0D1F8802022F030022243C1F88020D3F88D
S31508003000FC2042F08072C3F8FC20B5E70A4A4C1E41
S31508003010D2F8903023F0F85343EA0463C2F89030AC
S31508003020AAE7054A4C1E136F23F4806343EA8423F8
S315080030301367A1E700ED00E0008000500090005003
S3150800304008B50121022000F095F94FF42070FFF72A
S3150800305023FB054B18701DF0D2FD1DF0DEFD4FF465
S315080030608032024B1A6708BD89560120009000502D
S3150800307008B54FF4C070FFF77BFBBDE8084004496C
S31508003080884294BF012102214FF42070FFF766BFE2
S3150800309080F0FA0238B504462AF09CF80546FFF790
S315080030A021F8C0F1020128461DF0B1FD01210020DA
S315080030B000F0A0F92CB1FFF7DBFFBDE83840FFF7B9
S315080030C069BC034B4FF420701978FFF747FFF4E704
S315080030D0895601204FF4C02270B50546FFF7BEF9A0
S315080030E0314B04465A6603F598335A68012A04D1C7
S315080030F02E494A605A689207FCD48020FFF75AFC8A
S31508003100052807D11DF07BFD1DF087FD4FF48032A1
S31508003110254B1A67264B24F040749D4230D0254B28
S315080031209D4230D02AF030F88542064603D901215F
S31508003130284600F05FF9204BDA6812F0060FFBD13B
S3150800314099689C609A68624012F4F81F1ED1284656
S31508003150FDF776FB8020FFF72DFC05280DD12AF018
S3150800316039F80446FEF7BEFFC0F1020120461DF0FD
S315080031704EFDFFF77DFFFFF70DFCAE420CD270BD8A
S3150800318044F00074CEE744F08074CBE78020996061
S31508003190FFF710FC052805D0BDE870400121002086
S315080031A000F028B93546DAE70090005000E00150F3
S315080031B040420F0080841E00000001503D4B3E4AED
S315080031C0984263D021D83D4B98426BD011D83C4BDE
S315080031D04FF40021984261D008D83A4B98423AD029
S315080031E0394B984230D0394B984240D0002351662B
S315080031F039E0374B984243D0364B4FF4002198427A
S31508003200F4D1354BD3F8BC3021E0344B984241D049
S3150800321011D8A3F53703A3F5D853984246D003F53A
S31508003220B70303F5586398424FF40021DED12A4BC1
S31508003230D3F8C8300BE02A4B4FF400219842D5D179
S31508003240254BD3F8D03002E0234BD3F8A030516693
S3150800325023F0407307E0204BD3F8A030516623F0E3
S31508003260407343F080734FF0B442936070471A4B33
S31508003270D3F8A030516623F0407343F00073F2E7A9
S31508003280154BD3F8B8304FF40021E0E7124BD3F8CA
S31508003290C030F8E7104BD3F8CC30F4E70E4BD3F830
S315080032A0A430D4E70C4BD3F8B030ECE70A4BD3F88C
S315080032B0C430E8E7C0EA21010090005080969800E3
S315080032C0404B4C0080841E0000093D0040420F0020
S315080032D0405DC6000024F4000080E00F0048E801C5
S315080032E0005A6202024A536B0342FCD1704700BF80
S315080032F000800950044A4178536F23F4407343EA27
S3150800330001235367704700BF00400050104A10B5AC
S315080033101369044643F0040313612AF0B3FB1DF056
S3150800332081FC0C4B5B6E5B0142BF0B4B0B4AC3F82F
S315080033302024BFF34F8FBFF36F8F30BF1DF073FC90
S3150800334001F0D6F81CB9BDE8104029F043BF10BDFE
S3150800335000ED00E00080005000E003500000FF0F81
S31508003360034A0179D36E23F030030B43D3667047C3
S3150800337000400050F8B504461C4BD3F88420D1060B
S31508003380FBD4D3F88430C3F381139C422CD029F0A4
S3150800339001FF012C064602D121461DF038FC2BF010
S315080033A0B4F84FF00072124B07465A6620461DF0D5
S315080033B03DFC4FF480630D4D621E93402B676B6E88
S315080033C09A0103D4D5F884309B060AD538462BF0E3
S315080033D097F8022C08D13046BDE8F84000211DF0C8
S315080033E016BCD5F88430EAE7F8BD00BF00400050A7
S315080033F00060005010B50C4608B929F0CBFE074B03
S3150800340021461B783BB1064B984204D80120BDE8FB
S315080034101040FFF7AFBF0220F9E700BF8A56012028
S31508003420005A62020278034B012100201A70FFF746
S31508003430E1BF00BF8A5601204FF0004238B5244B41
S31508003440244C5A664AF6CD33656C014605F00105EB
S31508003450236428BB0120FFF745FF6368DB0715D502
S315080034601D4B586008461D4B226BD2070CD4984258
S3150800347008D1072415B1174B194A1A6429F092F88E
S31508003480204638BD0130EFE79842F2D00024F1E734
S315080034900132236B13F0080305D08A42F8D1E8E716
S315080034A000220E49F5E78A42E3D020210A4A9162B2
S315080034B00121A2F5805251600649084A886A8006A9
S315080034C003D49342D5D00133F8E79342DDE700BF32
S315080034D0009000500080095000A0095040420F009B
S315080034E03254FFFF4FF0004238B5164B01465A6674
S315080034F04AF6CD33144C154A656C236443780B2081
S315080035005B0043F00103D363FFF7ECFE63688A7838
S3150800351023F4F87343EA02136360CA784B7943EAE3
S315080035200223A3600A798B7943EA02232361087888
S31508003530FFF782FFEB0744BF054B236429F032F8F7
S31508003540012038BD0090005000800950004000500E
S315080035503254FFFF4FF00042124B70B55D6E03F513
S3150800356080535A664AF6CD3304460F4980204E6C7E
S315080035700B64FFF7B7FE0B6A23F00F030F2C94BFFB
S31508003580234343F00F030B62F30744BF074B0B6457
S31508003590002DA2BF4FF00042054B5A6629F002F8EB
S315080035A070BD00BF00800050008009503254FFFFF4
S315080035B000A000504FF00042104B70B55D6E03F549
S315080035C080535A664AF6CD3304460D4980204E6C20
S315080035D00B64FFF787FE0B6A23F4F85343EA0423C8
S315080035E00B62F30744BF074B0B64002DA2BF4FF0D5
S315080035F00042054B5A6628F0D5FF70BD0080005082
S31508003600008009503254FFFF00A000502DE9F04118
S3150800361005460F461E4690464AB101233022194CEC
S315080036208B4002FB004436B304F5825423600F2115
S31508003630072F05EB450388BFA7F108044FEA0313D4
S31508003640114895BFBC00A40004330C3308FA04F2F1
S31508003650A14018441DF0EBFAB8F1000F09D1012377
S315080036603021084ABB4001FB05223EB102F58252D1
S315080036701360BDE8F08104F50154D7E702F501525D
S31508003680F6E700BF00C0035030C003504FF4803245
S31508003690054B9A6641F6713203F51C33DA6301224B
S315080036A003F50053DA607047009000500B4B012178
S315080036B09B6EDB035EBF4FF48032094B9A6641F678
S315080036C07132084BDA63084AD1600022DA634FF494
S315080036D08032A3F518339A66704700BF0080005001
S315080036E0009000500000035000200350013836288F
S315080036F09ABF024B185C0020704700BFCFEB020848
S3150800370038B5C2F30625044602F0070241B942EA73
S31508003710052242F440220634074B43F8242038BDDC
S31508003720114628461DF092FA02462846FFF7DEFFA4
S31508003730163442EA0022EFE7008003504FF4803245
S31508003740084B5A6603F5EE239B69C3F3461203F04A
S315080037500F010A434280C3F30342C3F303334270A3
S315080037600370704700900050014B986CD96C7047F5
S315080037700080E00F0120034B9B680A3303F01F0308
S31508003780984070470080E00F0D4B984208D1A3F58A
S31508003790D023C3F85812802300F58050C3657047BC
S315080037A0084B984204D1A3F5D823C3F87412F2E75C
S315080037B0054B984204BFA3F5E023C3F89012EAE745
S315080037C000000A5000400A5000800A50012200F505
S315080037D080535A6040F6AA6341F20502436100230A
S315080037E00D498360C365C26000F500520361C36179
S315080037F0C364916409498365884203D1036500233C
S31508003800436506E006498842F8D001F580418842BA
S31508003810F4D0012353607047FFFF010000000A50EF
S3150800382000400A500122437801789A4030235943D0
S31508003830014B5A50704700BF40E00350034BD3F882
S315080038402424D3F820041040704700BF00C003505A
S315080038502DE9F8431F4B0546D3F810334B1E0E2BA4
S315080038600E461746047890F8018026D951B34FF0D2
S31508003870000928461FB329F035FD0F21B8F1070FB7
S3150800388004EB440488BFA8F108084FEA0414124858
S3150800389095BF4FEA88084FEA880804340C3409FAB9
S315080038A008F201FA08F120441DF04DFA86B92846B7
S315080038B057B1BDE8F84329F015BD8946D9E7FFF7A2
S315080038C0B1FFDAE78946D8E7BDE8F843FFF7AABFAC
S315080038D0BDE8F88300C0035030C00350054B9A6812
S315080038E09107FCD45A689207F9D4DA69002AF6D106
S315080038F0704700BF00C00A5010B5034C636829F032
S31508003900FDFC0223236110BD00C00A5008B5FFF76D
S31508003910E5FF0122024B03F580514A601A6108BD92
S3150800392000C00A50044B10B55C68012C03D1FFF7A0
S31508003930E3FF024B5C6010BD00C00A5000E00A506D
S3150800394038B5074DFFF7CAFF6B680446012B03D14C
S31508003950FFF7E8FFFFF7C2FF2378EB6038BD00BF2B
S3150800396000C00A5010B529F0D3FCB8B94A680B78DC
S3150800397012B1127843EAC2034A7843EA42038A68D4
S3150800398012B1127843EA8213CA7843EA82030A69B3
S3150800399012B1127843EA4223014A936410BD00BF6C
S315080039A000C00A504FF480320A4B5A6603F5EE23DC
S315080039B09B69C3F303320270C3F303424270C3F335
S315080039C0461203F00F03134343804FF6FF738380B9
S315080039D0704700BF00900050014B986CD96C704737
S315080039E00080E00F70B504460D462AF097FD0D2CB1
S315080039F0064616D80D2C18D8DFE804F01B1B171B33
S31508003A001B2A171B2E173117343901231B4AA340CB
S31508003A1013421DD10A2C2DD0042C06D14FF4E06098
S31508003A2022E00F3CE4B2112CEFD9002321242B808D
S31508003A3009E08020FFF736F94FF6FF7398420CBF6E
S31508003A400E240024288030462AF063FD204670BDE7
S31508003A5000230F242B80F6E74FF48060EAE74FF443
S31508003A604060E7E74FF4C060FFF7FEF8E4E74FF47D
S31508003A70F060F9E74FF41860F6E700BF4751030016
S31508003A8030B58BB06C468A4D8A482AF052FD0FCD68
S31508003A900FC42B68884A2360FF238DF80130D2F8BB
S31508003AA04C3113F4802340F0F680D2F850218DF87B
S31508003AB001309DF801306C46FF2B08BF3F2368464E
S31508003AC07E4D8DF80130FFF7BFF93220FFF7FAF97E
S31508003AD00FCD0FC40FCD0FC495E8030084E803008B
S31508003AE0754BD3F84C21120300F1C480D3F850412A
S31508003AF0E4B28DF81940FFF7A1F9044484F30804E9
S31508003B006F488DF81840FCF7A1FE6846FFF7D6F80F
S31508003B103220FFF7DDF96B48FFF7DCFA6A48FFF752
S31508003B204DFB6A4C6A482AF004FD0020FFF7D6F9D7
S31508003B30FFF786FA236F002023F0070343F00303F9
S31508003B402367FFF7A7FA236F624923F474432367B1
S31508003B50614BD3F8FC2012F0807200F09180D3F804
S31508003B60FC2022F08072C3F8FC20D4F8802022F0D2
S31508003B70030242F00102C4F880200022C1F8802026
S31508003B80D3F8FC2042F08072C3F8FC204F4CD4F8DE
S31508003B90203123F0070343F00203C4F82031D4F898
S31508003BA0283123F0070343F00203C4F82831D4F878
S31508003BB0803123F0030343F00103C4F88031D4F8BD
S31508003BC0403123F0030343F00203C4F84031D4F82C
S31508003BD0603123F0030343F00203C4F86031D4F8DC
S31508003BE0403223F0030343F00203C4F84032D4F80A
S31508003BF0003223F0070343F00203C4F80032D4F876
S31508003C00083223F0070343F00203C4F80832D4F855
S31508003C10503223F0030343F00203C4F85032D4F8B9
S31508003C20703223F0030343F00103C4F87032D4F86A
S31508003C30203223F0070343F00103C4F82032FEF7CD
S31508003C40FBFF4FF0E0220020136943F004031361E1
S31508003C50D4F8603223F0070343F00103C4F8603256
S31508003C60D4F8943223F0070343F00103C4F89432DE
S31508003C700BB030BD194B1C88FF2C88BF8C2438E745
S31508003C80D4F8803023F0030343F00103C4F88030EE
S31508003C90C1F880207AE74FF07E6393F89C2093F969
S31508003CA09C30002BFFF605AF8DF8012001E700BF19
S31508003CB008EC02084CEC02080080E00F1CEC020835
S31508003CC0C017530200B4C404C0EA210100800050A2
S31508003CD054EC02080090005000ED00E00001E00FEF
S31508003CE007B5094B18689A889B7900906846ADF81D
S31508003CF004208DF80630FFF7F5FB0C20FFF72AFCA9
S31508003D00002003B05DF804FB44EC020870B500F02F
S31508003D1021FC0446E8B900F0A7FC2AF069F84FF43C
S31508003D20167343430C4A03F5742303F23F23B3FB8C
S31508003D30F2F30A490A480B600A230268094D0E681D
S31508003D40013B45F8046B0E6813F0FF033244F6D1C5
S31508003D500260204670BD00BF40420F003858002060
S31508003D60085800200C580020012208B5034B1A7089
S31508003D702AF08FFC024B186008BD00BF8B56012045
S31508003D800458002010B52AF033F804462AF0B5FB8B
S31508003D90844207D92AF089FC20B10122024B186017
S31508003DA0024B1A7010BD00BF045800208B56012024
S31508003DB0F8B51F4C2378E3B12AF06BFC1D4B1E4D5A
S31508003DC01B68C01A28602B68A3B12B682B602AF0E1
S31508003DD00FF84FF416725043184A00F5742000F293
S31508003DE03F20B0FBF2F02B682B68834204D90023EE
S31508003DF02370F8BD0123E9E71148124E03782968B4
S31508003E0056F82320104F511A3A68521A29683A6010
S31508003E1046F823100A210932B2FBF1F20B4D0133A1
S31508003E20DBB22A60B3FBF1F201FB12330370DEE763
S31508003E308B560120045800203458002040420F00B9
S31508003E408C5601200C5800200858002038580020AD
S31508003E50014B1868704700BF38580020F8B5032191
S31508003E603C201CF08FFF04264FF480120D4C0E4B9D
S31508003E700E4F04F500555A663C206F676E672F672C
S31508003E802E6700F0A5F83C2000F086F84FF0007287
S31508003E9004F580535F675E67AA624FF480529A62A0
S31508003EA0F8BD00BF0040005A00900050010000A075
S31508003EB0064B074A996D11F0050F01D0117811B11B
S31508003EC00028F7D170470120704700BF0040005A0C
S31508003ED08D560120164B10B51C6F14F0040111D035
S31508003EE0144A1167082191629B6DDA0701D4FFF71E
S31508003EF049FF00F06DFA00F04DFA012029F0E0FFC5
S31508003F002AF0D5FBE30706D501220A4B1A67FFF705
S31508003F104FFF00F03FFA14F000521CBF054B1A671A
S31508003F20002CBEBF4FF00042024B1A6710BD00BFFF
S31508003F300040005A0060005A0028ACBF00F16040FB
S31508003F40064B4FEA0111C9B2ABBF00F5614000F05C
S31508003F500F0080F800131954704700BF14ED00E0F5
S31508003F6008B52AF0DBFA0B4B1A7872B901221A70D7
S31508003F702AF0CFFA6FF0040210460132052152B238
S31508003F80FFF7DAFF5D2AF7D108BDBDE808402AF039
S31508003F90C0BA00BF8E560120002807DB012341095D
S31508003FA0034A00F01F00834042F82130704700BFE3
S31508003FB000E100E0054B421153F8223000F01F00E3
S31508003FC023FA00F0C04300F00100704700E100E06A
S31508003FD0002808DB01224309034900F01F0082403C
S31508003FE0603341F82320704700E100E013B5094C1F
S31508003FF0684600F03FF8237853B9DDE9000102224C
S31508004000054B1DF031FB08B90123237002B010BD22
S315080040101220FBE78F5601203C58002007B5009375
S3150800402013460A46014603481CF0FDFE03B05DF838
S3150800403004FB00BF3C58002013460A4601460148C7
S315080040401CF0E1BF3C58002007B5009313460A460A
S31508004050014603481DF0DAF803B05DF804FB00BF1B
S315080040603C58002013460A46014601481DF0F4B89C
S315080040703C5800200249034A0160521A42607047C0
S31508004080E060012000000820BFF35F8F074B5A6AE3
S3150800409022F480325A62D3F8942022F00102C3F83F
S315080040A09420BFF34F8FBFF36F8F704700ED00E08A
S315080040B038B5FFF7E9FF284A2848D2F8C030284D16
S315080040C023F0FF0343F0A003C2F8C030254B046871
S315080040D09D4204F101011ED1234BC2F89840C2F853
S315080040E09C3003F5FF2303F2FE73C2F8A03001608B
S315080040F0BFF35F8F0522184BC3F894205A6A42F41F
S3150800410080325A62BFF34F8FBFF36F8FBFF34F8F63
S31508004110BFF36F8F38BD23F01F03203BB3F1005F59
S3150800412009D3C2F89840104C43F00103C2F89C40EA
S31508004130C2F8A03001600D4B0168074A23F01F033F
S3150800414043F00303C2F89810C2F89C30084B0131BB
S31508004150C2F8A030CBE700BF00ED00E064580020AD
S31508004160005E0120405C0120030000201F5E012044
S31508004170E1FF07202DE9F0410D461146DFF8E08002
S31508004180D8F80040B4F5807F34BF00271A27FFF718
S315080041907BFF1F292ED90021C2061CBF20F01F0055
S315080041A020302E4EEB0618BF25F01F05CBB29C42D9
S315080041B035D8D6F8C03020F01F0023F47F4343F4E7
S315080041C08073C6F8C03040F003042AF0A7F9D8F87F
S315080041D0003025F01F0141F00301C6F89830C6F8F3
S315080041E09C40C6F8A0102AF094F9D8F8003001339C
S315080041F0C8F80030BFF35F8F0522184BC3F8942028
S315080042005A6A42F480325A62BFF34F8FBFF36F8FF8
S31508004210BFF34F8FBFF36F8F3846BDE8F081C6F8FE
S315080042209830D6F89C30D6F8A02023F01F03984281
S3150800423022F01F0201D195420BD0904201D89D422F
S3150800424009D2D6F89830013123F0FF03C6F8983022
S31508004250ACE70027CEE72827CCE700BF00ED00E053
S3150800426064580020BFF34F8F0549064BCA6802F40D
S31508004270E0621343CB60BFF34F8F00BFFDE700BF7B
S3150800428000ED00E00400FA0538B5416004462AF05E
S315080042903CF90546214604481BF022FF2846BDE89E
S315080042A038402AF02DB900BF6858002001481BF095
S315080042B014BF00BF6858002070B52AF026F9134DC0
S315080042C0044613482AF035F92E7896B900F0B2F963
S315080042D0FFF7ECFF2AF0FEF90E4B1E6029F088FD69
S315080042E00D4B0E4A1860536F43F0010353671DF0D8
S315080042F0DDF900F0A1F81DF0EFF9094B186001236C
S3150800430020462B702AF0FCF8002070BD9C56012030
S3150800431058EC02086C5800209458002000400050C1
S315080043207058002038B504462AF0EFF80F4D0246BB
S315080043302B78FF2B04D1B4B1BDE838402AF0E0B899
S315080043401BB9002CF8D0012103E0002C0CBFFF217B
S3150800435001210B44DBB22B70B3FA83F304495B09E2
S3150800436010460B70E8E71946F3E700BF9956012097
S3150800437098560120054B1B685843054B00F57420D9
S3150800438000F23F20B0FBF3F0704700BF94580020BE
S3150800439040420F0010B5094B1B786BB1084C2378C7
S315080043A053B129F025FB0023064A23701370012315
S315080043B0054A1370054A137010BD00BF9B560120AD
S315080043C096560120955601209156012090560120B7
S315080043D0034B1B7813B10122024B1A70704700BFBA
S315080043E09B5601209656012073B5114E0446337824
S315080043F083420FD04FF400730E4DADF8043058B118
S3150800440001A8FEF777FF4020FFF7B4FF2B68181ABC
S315080044102860347002B070BD8DF8050001A8FEF75B
S3150800442069FF4020FFF7A6FF2B681844F0E700BF96
S31508004430C06001209858002073B5002401A88DF8A3
S315080044400440FEF7EFFF2046224CFFF7CDFFD4F8D5
S315080044500031214A03F0030313604FF480121F4B07
S315080044601F4D5A664FF400325A6629F0EFF91D4B74
S315080044701B780BB3D4F8003103F00303022B23D0C7
S31508004480032B24D0012B17D128F0BEFE024698B183
S31508004490154B164EDC6800231946C4F30B04013489
S315080044A004EB84040138E4FB060105F0EDFAFFF796
S315080044B061FF2B6803442B601F20FFF75BFF2B6807
S315080044C003442B6002B070BD28F0FCFEDEE728F03E
S315080044D0A1FEDBE700800050A458002000900050A1
S315080044E0985800209F56012000C0015040420F00F6
S315080044F00122114B10B55A67104B114C1B78A3B10A
S3150800450002202AF0D6F880B129F0C4FC68B1A36D60
S31508004510D90302D5E36D9A0703D4094B9B6DDB07D4
S3150800452004D54FF48032044B9A6210BD0122054B24
S315080045301A70FFF719FCF4E70050005AA05601203C
S315080045400040005A9D5601200122014B1A707047FF
S31508004550A056012070B529F0E1FF144E05463478BF
S31508004560FCB9134B1C60134B1C60134B1C6000F00A
S315080045702BF801202AF0B3F829F06EFD0F4B0246FE
S31508004580186020B9284629F0C4FF232070BD2346A9
S3150800459040F2E7310A4805F077FA0A4B186001231A
S315080045A03370284629F0B5FF0020EFE7A35601200F
S315080045B0B8580020B4580020C0580020BC58002025
S315080045C018FCFFFFB058002010B5002486B014224E
S315080045D0214601A88DF800401FF05AF80123134818
S315080045E08DF8043029F0A5FFBFF34F8F6846FFF713
S315080045F0A7F9204601A98DF80440FFF7B3F920462C
S315080046000F2128F097FE0F21204628F099FEFFF784
S315080046107DF928F073FE064B53209C61FFF7D8FC02
S315080046205320FFF7B9FC06B010BD00BF4CEC0208DA
S3150800463000C00A5008B50A4829F07BFF40F6015227
S3150800464000210120FFF75CF84FF4A2720021012037
S315080046501CF011FB4FF48072024B9A6408BD00BF30
S3150800466050EC020800D00A5008B5094829F061FF45
S3150800467040F6016200210220FFF742F84FF49E72CD
S31508004680002102201CF0F7FA0022024B9A6408BDAA
S3150800469050EC020800D00A5038B508460C4627F0F8
S315080046A090FF034620B994E80700024D85E8070005
S315080046B0184638BDC458002070B5032916461C464E
S315080046C0049D01D9212070BD02D127F074FF01464F
S315080046D00C4B9A7A8A42F5D9186809B201EB41015E
S315080046E000EB810116B1B1F90430338014B1B1F988
S315080046F0063023800DB90020E5E7B1F908302B8094
S31508004700F9E700BFC45800202DE9F0432A48079F5F
S31508004710847A94424CD9066802EB42024FEA820C2C
S3150800472016EB820246D05089002843D0B2F90440DD
S31508004730B2F906508C42B2F908E02FDCA942A8BFAC
S315080047402946BEF1000F35D000F1FF381FFA88F868
S315080047500EFB08490A1B92FBFEF24D45D8BF4046A0
S3150800476092B2904202D3A94218BF104656F80C20BE
S3150800477052F8206002EB800C18B15CF8048D4645AF
S315080047800ED08D421EBF1EFB00F1091909B29942CF
S3150800479009DC00203E60B980BDE8F0832146D0E7F9
S315080047A0013880B2E8E70028F3D0013880B2DFE7A5
S315080047B00E20F1E70220EFE7C458002008B50649A5
S315080047C04FF0FF30FFF768FFBDE8084001214FF0C2
S315080047D0FF3027F0F8BE00BFDCFD02087FB50222D5
S315080047E0084B0949CDE901234FF04073CDE903137E
S315080047F0052301A94FF0FF30059327F009FF07B0FD
S315080048005DF804FB006A18000003040006289ABF36
S31508004810014B185C0020704788FE020800F01F0252
S31508004820A0F50620A0F55060812810D80123094973
S315080048304009934051F820201A4341F820200649A0
S3150800484051F8202022EA030241F8202070474FF051
S31508004850FF307047E8580020D458002000F01F03A6
S31508004860A0F50620A0F55060812810B519D80121B9
S315080048700D4A4009994052F820300B430B4942F83B
S315080048802030D1E9004323448C682344CC68096965
S3150800489023445B1804D1C2E90033C2E90233136129
S315080048A010BD4FF0FF30FBE7D4580020E858002031
S315080048B02DE9F04FA7B003921F4604460822CDE91A
S315080048C00401414021FA02F34B40980702F108021D
S315080048D018BF9B00202A1C44F4D18123B4FBF3F3B0
S315080048E003EBC313E41A7F4B04F506241B7804F57F
S315080048F05064002B39D1FDF7FFFA054600286FD121
S315080049000146402206A81EF0C3FE2946402216A8E4
S315080049101EF0BEFE744D754EA8461035AE4228BF31
S315080049202E467348013E009643461022006806A9A3
S315080049301BF05EFF4FF0000B81460DF1180AD945B2
S3150800494041D16B48009643461022006816A91BF011
S3150800495058FF4FF00008834616AEC34546D1654B4F
S315080049609D42D8D101225F4B1A704FF0810800266C
S31508004970DFF894B1A4F50625A5F550635B095BF845
S31508004980232004F01F01CA40D20746D45A4A52F8D7
S315080049902330CB40DB0732D58123002E08BF2646BD
S315080049A0A5F6FF44B4FBF3F303EBC313E41A04F5CB
S315080049B00624B8F1010804F55064DBD1039B03B360
S315080049C0FEB1344625E05AF8040BFFF727FF0130FD
S315080049D009D10022434B1A70424B1B78002BC4D1D5
S315080049E06FF091000FE00BF1010BA8E756F8040BE6
S315080049F0FFF734FF0130EFD008F10108ADE7039B5C
S31508004A0023B96FF08B0027B0BDE8F08F002E18BFD2
S31508004A103446329B00201C60F5E7309B13B1002317
S31508004A20309A1360319B13B10023319A13604FF00B
S31508004A30100ADFF8BC90CDF800A000233A462146BC
S31508004A40D9F80000FDF75AF8002838D130993A68A5
S31508004A502A4BE9B19A42C1F800A01CD02146D9F8E0
S31508004A600000FDF7A5F90028CBD1D7E90223DDE937
S31508004A700410834208BF8A422AD08123A5F6FF453F
S31508004A80B5FBF3F303EBC313ED1A05F5062490E71C
S31508004A909A42EAD0E2E7319B002BE6D02146D9F8C4
S31508004AA0000016AAFDF770F848B9319B309A1B68C2
S31508004AB01268934294D39B1A319A1360D5E7104B28
S31508004AC09842CBD06328C9D00E4B9842CDD087E701
S31508004AD0039B002B9DD07B68012B9AD16FF0840035
S31508004AE091E700BFA4560120006D0800816D0800FB
S31508004AF0305E0120906D0800D4580020105D175EC6
S31508004B00FFDF00F0FEDF00F0E85800202DE9F04F47
S31508004B1087B08246894698461646DDF840B02AB1DF
S31508004B20002B53D040F26C739A4252D8BBF1010F56
S31508004B3052D8002406F110073946012005941CF0C6
S31508004B4081FB054600284AD021463A461EF0A0FDBC
S31508004B5005ABCDE9014300942B4601225046494650
S31508004B60FFF7A6FE044680B110F18C0F08BF6FF060
S31508004B708D043A46002128461EF08AFD28461CF078
S31508004B8043FB204607B0BDE8F08F164BC5E902A9DE
S31508004B902B60C5F804B02EB13246414605F1100027
S31508004BA01EF07EFD059E10483B462A4631460068A3
S31508004BB0FDF7BAF838B93046FFF730FE013008BFBE
S31508004BC06FF08604D5E76FF09104D2E76FF086049C
S31508004BD0D7E76FF09104D4E76FF08504D1E76FF05B
S31508004BE08C04CEE7105D175E305E01202DE9F04398
S31508004BF08DB08146DDE914780E4615461C469BB1F4
S31508004C00B8F1000F05D16FF0860630460DB0BDE845
S31508004C10F083002FF7D0B7F1005FF4D3C3F1005348
S31508004C2003F500239F42EED81022002108A81EF0A3
S31508004C302FFD002207AB029305AB019306AB314665
S31508004C400093484608ABCDE90522FFF731FE064634
S31508004C500028DAD1059BA4B1AB4215D853EA05045E
S31508004C60D1D1069B0B48C8F8004000943A460799EC
S31508004C7000682B44FCF742FF002818BF6FF0910626
S31508004C80C3E7AB42EDD2BEE75B1B9C4228BF1C467E
S31508004C90E7E700BF305E012030B58DB00C4605460B
S31508004CA01022002108A81EF0F3FC002207AB02938D
S31508004CB005AB019306AB21460093284608ABCDE920
S31508004CC00522FFF7F5FD044608BB099B012B21D0F9
S31508004CD0079D134B29461868FDF76AF8E8B9A5F544
S31508004CE00623A3F55063812B05F01F020DD8012179
S31508004CF00C485B09914050F823204A4040F823208D
S31508004D002846FFF7ABFD013001D16FF08604204637
S31508004D100DB030BD6FF08404F9E76FF09104F6E743
S31508004D20305E0120E85800202DE9F04F95B0044682
S31508004D30DDE92075DDE922689346DDE91E028A462B
S31508004D40DDF8909029B96FF08604204615B0BDE8C5
S31508004D50F08FBBF1000FF6D00FB9002DF3D108B9CB
S31508004D60002AF0D116B9B8F1000FECD1B9F1000F4D
S31508004D70E9D02C4A934252D12388B3F5105F4ED11D
S31508004D80282200210DEB02001EF082FC20220021C1
S31508004D9002A81EF07DFC0AA829F0CFFD10B16FF01D
S31508004DA09204D2E720465A46514602AB00F00CFA66
S31508004DB004460028C9D102981CF048FD044600287C
S31508004DC0C3D115B9C9F80050BFE7B74224D27B1939
S31508004DD09E4221D24545B6D839462A4630461EF067
S31508004DE03DFC374615F00F0AADD1CDE900762B46C6
S31508004DF0524602A90AA801F06BFB07460028E1D033
S31508004E004246514630461EF043FC012FC9F800A021
S31508004E10C5D16FF08B0498E74545E3D993E76FF062
S31508004E20850492E7004440042DE9F047C4B00C46D7
S31508004E3007460021154601A820229A464C9EDDF811
S31508004E403891DDF840811EF023FC2022002109A8B4
S31508004E501EF01EFC2022002111A81EF019FC282293
S31508004E60002119A81EF014FC0021802224A82391F1
S31508004E701EF00EFC3CB135B12EB1B9F1000F02D0CF
S31508004E80B8F1000F05D16FF08604204644B0BDE89E
S31508004E90F0872188628801F4E043B3F5804FF2D0A9
S31508004EA02C4B2D483B4043F01063834202D06FF0F1
S31508004EB08504EAE7D31DBAEBD30F4FEAD307E2D34B
S31508004EC04F9B9F423FD847F212139942EFD1B2F552
S31508004ED0807FECD1214B4D9809938423023001360B
S31508004EE020F0030016937B000D960E901293204631
S31508004EF05246294623AE01AB159600F065F90446DD
S31508004F000028C2D10B9B119043F4005319A80B93A8
S31508004F1029F013FDD0B911AB09AA01A919A801F006
S31508004F20AFFD054610B14828ADD1C0E73A4631462F
S31508004F3048461EF0B5FB2B4673550135842DFBD12B
S31508004F40C8F80070A1E76FF089049EE76FF0920435
S31508004F509BE700BF0000FFF6000002092000008062
S31508004F602DE9F0410D4614461E46C4B010B96FF03F
S31508004F7086000DE00029FAD0002AF8D0002BF6D0DA
S31508004F80038803F44F42B2F5824F04D06FF08500D0
S31508004F9044B0BDE8F081DAB2122AF7D123F0FF0354
S31508004FA0B3F5E24F27D143883360FBB9E30033609A
S31508004FB0B3F5807FEAD10023184642492E192144C9
S31508004FC011F8014D16F8012D1043121B0CBF4FF0B6
S31508004FD0FF340024B54203EA040343EA0203EFD18F
S31508004FE00028C4D0002BC2DA0020D1E7DA1DB4EBC2
S31508004FF0D20FDDD0BBE7B3F5824F60D10B78042B17
S31508005000B5D12822002118A81EF042FB18A829F0BD
S3150800501094FC002850D100278422394623A82297D9
S315080050201EF036FB01232022394668468DF8883063
S315080050301EF02EFB20224FF08808013C3946013528
S3150800504005940DEB0200E400049564081EF020FBAD
S3150800505022AD2022394610A80C95CDF834801EF0D2
S3150800506017FBE02CCDE91458346003D0B4F5807FE3
S315080050707FF47DAF144B0734009308934FF4005325
S3150800508002934FF48043E4086A460A93640010AB1F
S3150800509008A918A8119401F0F3FC33680733DB0854
S315080050A05A0033B10021531E013B297005F1010551
S315080050B0FAD2002898D05AE76FF0920068E76FF0A6
S315080050C0960065E7ACFE020820000080F8B5134696
S315080050D042880C460732072A4FEAD20101D0A1427C
S315080050E06DD1D0E9016705882022184600211EF0F7
S315080050F0CFFA360A034626B1012E11D06FF08B007F
S31508005100F8BD002C5BD041F20102954205D0B5F5F9
S31508005110885F02D0B5F5905F1BD15C600020EFE791
S31508005120C660002C4BD041F2010295420BD15C605F
S31508005130B90707F001021FD4002AEFD19A6842F096
S3150800514080729A60EAE7B5F5885FF0D0B5F5905FAA
S31508005150EDD0B5F5105F0AD1182C03D0202C01D05C
S31508005160102C2CD1C3E90044002ED7D0E0E705F473
S315080051704F42B2F5824F02D06FF08500C0E7EAB21F
S31508005180122AF9D1202CF7D10E4A25F0FF05B5F5DC
S31508005190E24F1A600CD0B5F5824F10D14FF4005289
S315080051A017F4705F09D017F4864F04D09A60E3E7C6
S315080051B04FF48042F4E742F480629A60D4E76FF0D5
S315080051C086009DE7200000802DE9F0411746002261
S315080051D01C4643688CB01B0A80460D46009204D0D4
S315080051E0012B56D06FF08B008EE0008820F0FF036D
S315080051F0B3F5824F15D1B8F802200732D2080092CB
S315080052001CF030FB002800F0E1800B78042B05D158
S31508005210013FB7EB420F05F1010503D06FF0860099
S3150800522072E00097009E224631464046FFF74EFF41
S31508005230002869D1FA1CC4E9030522F00302626159
S31508005240002E00F0A4802022002101A81EF020FADA
S315080052503146404601AAFFF739FF002840F09780FB
S315080052602168019D039A8D42A36840F09080616889
S31508005270029D8D4240F08B809A4240F08880A36957
S31508005280079A9A4240F08380E369089A9A423BD08B
S315080052907DE0032FC2D90B78012B40F09A8049781C
S315080052A000294BD0F73908299CD801A353F821F0D7
S315080052B019530008D5520008E55100080F53000895
S315080052C0E551000833530008E55100082353000848
S315080052D02B5300084FF41056F8253F4F1C22002187
S315080052E002A81EF0D5F903230197CDE904350396E4
S315080052F001AA09AD134603CBAB42206061601A468A
S3150800530004F10804F6D100200CB0BDE8F08110279E
S315080053104FF08076FA25E1E720274FF00076F7254B
S31508005320DCE7FE252C4F2D4ED8E7FF252A4F2C4EBD
S31508005330D4E74FF41056FC25274FCFE72B2F7FF6DF
S315080053406DAF202220461EF0A3F905F11003236154
S31508005350AB070DD001AB05F128061A46286869681F
S31508005360083503C2B5421346F7D1286801AD106067
S315080053706B68103F2360AB6869466360EB6820463C
S31508005380A36001236761E3601DF0CAFC28B12022EF
S31508005390002120461EF07CF940E7B8F80030009E50
S315080053A003F44F42B2F5824F0ED1DAB2122A0BD16C
S315080053B023F0FF03B3F5824F06D1730062691C33ED
S315080053C09A42BFF43DAFE2E73346F7E76FF0850050
S315080053D09AE76FF0910097E72000008000440002EA
S315080053E0004400032DE9F04F91B0DDF8688081464E
S315080053F00C4692469B461C9FB8F1000F05D16FF0EC
S315080054008604204611B0BDE8F08F002FF7D000289B
S31508005410F5D02822002106A81EF03AF906A829F098
S315080054208CFA10B16FF09204EBE714F47C1FC4F306
S3150800543005452AD0102DE2D81B9B9D422ED81A4B23
S3150800544024F47E149C422CD1002302AECDE902330B
S31508005450CDE9043352465B464946009606A801F054
S31508005460A1F8044698B92A46314640461EF018F96E
S31508005470234633550134102CFBD100243D6006A881
S315080054801DF049FC0028BCD0CCE71025D4E721281C
S3150800549014BF6FF092046FF08604F0E76FF089048A
S315080054A0AFE76FF08504ACE70002C00370B50E469F
S315080054B01446054610B96FF0860070BD0029FAD06B
S315080054C0382200211EF0E4F8094B24F47E129A4291
S315080054D00AD13388B3F5105F06D1C4F30543102B00
S315080054E0E9D800202C60E8E76FF08500E5E700BF03
S315080054F00002C003F0B50E4617461C4605468DB099
